:100000000C945D000C9485000C9485000C94850084
:100010000C9485000C9485000C9485000C9485004C
:100020000C9485000C9485000C9485000C9485003C
:100030000C9485000C9485000C9485000C9485002C
:100040000C9433030C9485000C94A3030C947D034F
:100050000C9485000C9485000C9485000C9485000C
:100060000C9485000C94850000000008000201003B
:100070000003040700000000000000000000000072
:10008000250028002B0000000000240027002A0083
:10009000040404040404040402020202020203032E
:1000A0000303030301020408102040800102040836
:1000B00010200102040810202F0511241FBECFEFCD
:1000C000D8E0DEBFCDBF11E0A0E0B1E0E6EDFCE09E
:1000D00002C005900D92A838B107D9F722E0A8E830
:1000E000B1E001C01D92AE32B207E1F710E0CDE5FC
:1000F000D0E004C02197FE010E946306CC35D107F1
:10010000C9F70E94D5030C9469060C94000090E096
:10011000FC01EC55FF4F249180579F4FFC018491C7
:10012000882399F090E0880F991FFC01EA57FF4F50
:10013000A591B491FC01E458FF4F859194918FB73C
:10014000F894EC91E22BEC938FBF089590E0FC01C2
:10015000E859FF4F2491FC01EC55FF4F3491FC010D
:10016000E057FF4FE491EE23C9F0222339F023300A
:1001700001F1A8F4213019F1223029F1F0E0EE0F5D
:10018000FF1FE458FF4FA591B4918FB7F894EC91FD
:10019000611126C030953E233C938FBF08952730D0
:1001A000A9F02830C9F0243049F7809180008F7D74
:1001B00003C0809180008F7780938000DFCF84B56B
:1001C0008F7784BDDBCF84B58F7DFBCF8091B0006E
:1001D0008F778093B000D2CF8091B0008F7DF9CF20
:1001E0003E2BDACF1F93CF93DF93182FEB010E94A2
:1001F0008700209739F460E0812FDF91CF911F9124
:100200000C94A600CF3FD10511F461E0F5CFE12FAA
:10021000F0E0E859FF4FE491E33031F140F4E13090
:10022000B1F0E230E1F0C038D1057CF7E4CFE7303F
:1002300029F1E83059F1E430B1F780918000806213
:1002400080938000D0938B00C0938A0004C084B553
:10025000806884BDC7BDDF91CF911F91089584B59B
:10026000806284BDC8BDF7CF809180008068809394
:100270008000D0938900C0938800EDCF8091B000BA
:1002800080688093B000C093B300E5CF8091B00048
:1002900080628093B000C093B400DDCF3FB7F89484
:1002A00080918D0190918E01A0918F01B09190016C
:1002B00026B5A89B05C02F3F19F00196A11DB11DC1
:1002C0003FBFBA2FA92F982F8827BC01CD01620FFD
:1002D000711D811D911D42E0660F771F881F991FB8
:1002E0004A95D1F708958F929F92AF92BF92CF9285
:1002F000DF92EF92FF926B017C010E944E014B0155
:100300005C01C114D104E104F104B9F00E944E0172
:10031000681979098A099B09683E7340810591052E
:1003200080F321E0C21AD108E108F10888EE880EB6
:1003300083E0981EA11CB11CE4CFFF90EF90DF90EA
:10034000CF90BF90AF909F908F900895AF92BF9243
:10035000CF92DF92EF92FF920F931F93CF93DF9391
:100360006C017B018B01040F151FEB015E01AE18C0
:10037000BF08C017D10759F06991D601ED91FC91E2
:100380000190F081E02DC6010995892B79F7C5010F
:10039000DF91CF911F910F91FF90EF90DF90CF9061
:1003A000BF90AF900895FC01538D448D252F30E010
:1003B000842F90E0821B930B541710F0CF96089572
:1003C00001970895FC01918D828D981761F0A28D9F
:1003D000AE0FBF2FB11D5D968C91928D9F5F9F7365
:1003E000928F90E008958FEF9FEF0895FC01918D1B
:1003F000828D981731F0828DE80FF11D858D90E088
:1004000008958FEF9FEF0895FC01918D228D892F24
:1004100090E0805C9F4F821B91098F73992708950C
:1004200081E991E00E94040221E0892B09F420E097
:10043000822F089580E090E0892B29F00E9410021D
:1004400081110C9400000895FC01A48DA80FB92F10
:10045000B11DA35ABF4F2C91848D90E001968F73EC
:100460009927848FA689B7892C93A089B1898C910B
:10047000837080648C93938D848D981306C002885A
:10048000F389E02D80818F7D80830895EF92FF9224
:100490000F931F93CF93DF93EC0181E0888F9B8DA7
:1004A0008C8D98131AC0E889F989808185FF15C061
:1004B0009FB7F894EE89FF896083E889F989808184
:1004C0008370806480839FBF81E090E0DF91CF9153
:1004D0001F910F91FF90EF900895F62E0B8D10E075
:1004E0000F5F1F4F0F731127E02E8C8D8E110CC0E4
:1004F0000FB607FCFACFE889F989808185FFF5CF2F
:10050000CE010E942402F1CFEB8DEC0FFD2FF11DE7
:10051000E35AFF4FF0829FB7F8940B8FEA89FB896B
:1005200080818062CFCFCF93DF93EC01888D8823C9
:10053000B9F0AA89BB89E889F9898C9185FD03C046
:10054000808186FD0DC00FB607FCF7CF8C9185FF2B
:10055000F2CF808185FFEDCFCE010E942402E9CF4A
:10056000DF91CF910895FC0101900020E9F73197C8
:10057000AF01481B590BBC0181E991E00C94A60125
:100580008F929F92AF92BF920F931F93CF93DF935F
:10059000CDB7DEB7A1970FB6F894DEBF0FBECDBFC3
:1005A00019A2423008F44AE08E010F5D1F4F842EDD
:1005B000912CB12CA12CA50194010E943206E62FAA
:1005C000B901CA01EA30F4F4E05DD801EE938D017F
:1005D000232B242B252B79F790E080E0109719F03E
:1005E000CD010E94B302A1960FB6F894DEBF0FBEF4
:1005F000CDBFDF91CF911F910F91BF90AF909F9092
:100600008F900895E95CE1CFCF92DF92EF92FF9255
:10061000CF93DF936B017C016DE281E991E00E9451
:100620004602EC0166277727CB016C197D098E09FC
:100630009F094AE00E94C0028C0F9D1FDF91CF915D
:10064000FF90EF90DF90CF900895CF93DF930E94BB
:10065000B302EC0186E191E00E94B3028C0F9D1F72
:10066000DF91CF9108951F920F920FB60F92112430
:100670002F933F938F939F93AF93BF938091890163
:1006800090918A01A0918B01B0918C0130918801E9
:1006900023E0230F2D3758F50196A11DB11D20939E
:1006A00088018093890190938A01A0938B01B09374
:1006B0008C0180918D0190918E01A0918F01B0915C
:1006C00090010196A11DB11D80938D0190938E0123
:1006D000A0938F01B0939001BF91AF919F918F91A3
:1006E0003F912F910F900FBE0F901F90189526E805
:1006F000230F0296A11DB11DD2CF1F920F920FB6EC
:100700000F9211242F933F934F935F936F937F9397
:100710008F939F93AF93BF93EF93FF9381E991E002
:100720000E942402FF91EF91BF91AF919F918F9111
:100730007F916F915F914F913F912F910F900FBEDD
:100740000F901F9018951F920F920FB60F921124C1
:100750002F938F939F93EF93FF93E091A101F091DB
:10076000A2018081E091A701F091A80182FD1BC048
:1007700090818091AA018F5F8F732091AB018217C6
:1007800041F0E091AA01F0E0EF56FE4F958F809383
:10079000AA01FF91EF919F918F912F910F900FBE22
:1007A0000F901F9018958081F4CF789484B5826063
:1007B00084BD84B5816084BD85B5826085BD85B505
:1007C000816085BD80916E00816080936E00109283
:1007D00081008091810082608093810080918100FE
:1007E000816080938100809180008160809380008F
:1007F0008091B10084608093B1008091B0008160ED
:100800008093B00080917A00846080937A00809118
:100810007A00826080937A0080917A008160809370
:100820007A0080917A00806880937A001092C100EB
:100830008AE00E94870089E00E94870088E00E9489
:10084000870085E00E94870087E00E94870086E09D
:100850000E948700E091A101F091A20182E08083D3
:10086000E0919D01F0919E011082E0919F01F09135
:10087000A00180E180831092A901E091A501F0918F
:10088000A60186E08083E091A301F091A40180811C
:1008900080618083E091A301F091A4018081886050
:1008A0008083E091A301F091A4018081806880831E
:1008B000E091A301F091A40180818F7D808389E183
:1008C00091E00E9425038DEF482E512C612C712C54
:1008D000C0E0D0E08EE291E00E94250360E089E074
:1008E0000E94A60061E088E00E94A60060E087E028
:1008F0000E94A60061E086E00E94A60070E060E031
:100900008AE00E94F2006FEF70E085E00E94F20042
:100910006CE271E080E090E00E94730168E97AE3A4
:1009200080E090E00E94730188E491E00E94B302AD
:1009300061E089E00E94A60060E088E00E94A600D5
:1009400061E087E00E94A60060E086E00E94A600C9
:100950000E94A805A30192010E9400064B015C01C0
:100960002FEF821A920AA20AB20A0E94A805A301D6
:1009700092010E9400066B017C012FEFC21AD20A7D
:10098000E20AF20AB4018AE00E94F200B60185E0B0
:100990000E94F20087E591E00E94B302B7FE53C0C7
:1009A000C501B4010E94040381E691E00E94B302F4
:1009B000F7FE4FC0C701B6010E94040386E191E033
:1009C0000E94B30268E873E180E090E00E94730146
:1009D00068E873E180E090E00E9473018CE691E0AA
:1009E0000E94250360E089E00E94A60061E088E0A3
:1009F0000E94A60060E087E00E94A60061E086E019
:100A00000E94A6006AE070E08AE00E94F2006AEFAD
:100A100070E085E00E94F2006CE271E080E090E01E
:100A20000E94730168E97AE380E090E00E9473011C
:100A3000209709F44FCF0E941002882309F44ACF6F
:100A40000E94000047CF4AE0C501B4010E94C002E5
:100A5000ABCF4AE0C701B6010E94C002AFCFE1E9C7
:100A6000F1E01382128288EE93E0A0E0B0E084838C
:100A70009583A683B78388E091E09183808385EC9A
:100A800090E09587848784EC90E09787868780EC58
:100A900090E0918B808B81EC90E0938B828B82EC49
:100AA00090E0958B848B86EC90E0978B868B118EF3
:100AB000128E138E148E08958F929F92AF92BF92D2
:100AC000CF92DF92EF92FF92CF93DF93EC01688198
:100AD00079818A819B81611571058105910521F4D8
:100AE00064E279ED8BE597E02DE133EF41E050E0F2
:100AF0000E94000649015A019B01AC01A7EAB1E43A
:100B00000E941F066B017C01ACEEB4EFA5019401BD
:100B10000E942D06C60ED71EE81EF91EF7FE06C05F
:100B200081E0C81AD108E10880E8F80AC882D982B1
:100B3000EA82FB82C701B6019F77DF91CF91FF90D8
:100B4000EF90DF90CF90BF90AF909F908F900895DF
:100B50008F929F92AF92BF92CF92DF92EF92FF92CD
:100B60006091000170910101809102019091030157
:100B7000611571058105910521F464E279ED8BE53C
:100B800097E02DE133EF41E050E00E94000649017B
:100B90005A019B01AC01A7EAB1E40E941F066B0158
:100BA0007C01ACEEB4EFA50194010E942D06C60EA7
:100BB000D71EE81EF91EF7FE06C081E0C81AD1084C
:100BC000E10880E8F80AC0920001D0920101E092A9
:100BD0000201F0920301C701B6019F77FF90EF90E9
:100BE000DF90CF90BF90AF909F908F9008956093CB
:100BF0000001709301018093020190930301089515
:100C0000052E97FB1EF400940E94170657FD07D08F
:100C10000E94320607FC03D04EF40C941706509540
:100C20004095309521953F4F4F4F5F4F08959095D8
:100C30008095709561957F4F8F4F9F4F08950E94CB
:100C40005406A59F900DB49F900DA49F800D911DFB
:100C500011240895B7FF0C941F060E941F06821BE3
:100C6000930B0895A1E21A2EAA1BBB1BFD010DC018
:100C7000AA1FBB1FEE1FFF1FA217B307E407F5074C
:100C800020F0A21BB30BE40BF50B661F771F881F28
:100C9000991F1A9469F760957095809590959B01BE
:100CA000AC01BD01CF010895A29FB001B39FC00167
:100CB000A39F700D811D1124911DB29F700D811D88
:100CC0001124911D0895EE0FFF1F0590F491E02D62
:060CD0000994F894FFCF27
:100CD60001000000000000004602A601D3019302B5
:100CE6000402E201F6010D0A00556E69742054658E
:100CF6007374696E672073746172746564006C65E1
:100D06006674203235352072696768742030202079
:100D1600464F525741524400626F746820626163C5
:100D26006B77617264200053706565642041203DD5
:100D3600002053706565642042203D006C65667432
:100D460020323530207269676874203130202046A1
:080D56004F52574152440000C6
:00000001FF
